:020000040800F2
:10000000C8090120C50100082D1E0008B114000810
:100010002B1E000887030008F524000800000000DC
:10002000000000000000000000000000052400089F
:1000300025040008000000004F1E000807240008E7
:10004000DF010008DF010008DF010008DF01000810
:10005000DF010008DF01000827040008DF010008B5
:10006000DF010008DF010008DF010008DF010008F0
:10007000DF010008DF010008DF010008DF010008E0
:10008000DF010008DF010008DF010008DF010008D0
:10009000DF010008DF010008DF010008DF010008C0
:1000A000DF010008DF010008DF010008DF010008B0
:1000B000DF010008DF010008DF010008DF010008A0
:1000C000DF010008DF010008DF010008DF01000890
:1000D000DF010008DF010008DF010008DF01000880
:1000E000DF010008DF010008DF010008DF01000870
:1000F000DF010008DF010008DF010008DF01000860
:10010000DF010008DF010008DF010008DF0100084F
:10011000DF010008DF010008DF010008DF0100083F
:10012000DF010008DF010008DF010008DF0100082F
:10013000DF010008DF010008DF010008DF0100081F
:10014000DF010008DF010008DF010008DF0100080F
:10015000DF010008DF010008DF010008DF010008FF
:10016000DF010008DF010008DF010008DF010008EF
:10017000DF010008DF010008DF01000800000000C7
:10018000DF010008DF010008DF010008DF010008CF
:10019000DF010008DF010008DF010008DF010008BF
:1001A000DF010008DF010008DF010008DFF810D0E0
:1001B00000F0ACF80048004719190208AFF30080BE
:1001C000C80901200648804706480047FEE7FEE7C9
:1001D000FEE7FEE7FEE7FEE7FEE7FEE7FEE7FEE7F7
:1001E000A1240008AD0100082DE9F05F05460020BC
:1001F00092469B4688460646814640241BE0284698
:1002000041464746224600F071F853465A46C01A06
:10021000914110D311461846224600F058F82D1A85
:1002200067EB01084F4622460120002100F04FF8FD
:1002300017EB00094E41201EA4F10104DFDC484603
:1002400031462A464346BDE8F09F40EA01039B073A
:1002500003D009E008C9121F08C0042AFAD203E03B
:1002600011F8013B00F8013B521EF9D27047D2B29F
:1002700001E000F8012B491EFBD270470022F6E78F
:1002800010B513460A4604461946FFF7F0FF20460C
:1002900010BD421C10F8011B0029FBD1801A7047C9
:1002A00010B5002200E0521C835C8C5CA34201D19B
:1002B000002BF8D1D8B2E1B2401A10BD034611F8B4
:1002C000012B00F8012B002AF9D118467047202A8B
:1002D00004DB203A00FA02F1002070479140C2F19D
:1002E000200320FA03F3194390407047202A04DBCF
:1002F000203A21FA02F00021704721FA02F3D0409F
:10030000C2F120029140084319467047064C074D40
:1003100006E0E06840F0010394E8070098471034D5
:10032000AC42F6D3FFF746FFB4CE0208D4CE0208A3
:1003300070B58C1810F8015B15F0070301D110F8A7
:10034000013B2A1106D110F8012B03E010F8016BD4
:1003500001F8016B5B1EF9D12B0705D40023521E57
:100360000DD401F8013BFAE710F8013BCB1A921CBF
:1003700003E013F8015B01F8015B521EF9D5A142BD
:10038000D8D3002070BDFEE7F0B5059E0468656C0B
:1003900046EA034305F040451D4365640368DA639C
:1003A0004268B2F5403F02D00068C160F0BD01F084
:1003B0007F4501F47F0701F47F46CCB201F47F4210
:1003C00001F47F0C836842EA0C02BBB1012B18D008
:1003D00001F47F02D20CC1F3C401022B13D0032B12
:1003E00017D0290F3A0D330B24091B0143EA0222CF
:1003F00042EA0132224300688263F0BD2A4322436D
:10040000F9E72243F7E7B30A5B0143EAC2220A4352
:10041000F1E7EB0FF40A640144EA822242EAC332B4
:100420000A43E8E77047704730B5D1E901231A4322
:10043000D1E9033423431A434B690D681A438B698E
:100440001A43D1E90734496A012D08D005686FF3D2
:100450000E051A4322430A432A4302600BE0056853
:1004600025F4F845234329430B4341686FF30E01FC
:100470000A4303604260002030BD426942EA410104
:10048000416100207047F8B506461446D1E90002E4
:1004900010438A68C968521E520142EA412108434A
:1004A00000900098306100F087FA054609E0601C72
:1004B00007D024B100F080FA401BA04201D90320EC
:1004C000F8BDB0698006F2D40020F8BDF0B50C6824
:1004D0004B68641E5B1E44EA03148B684D695B1E07
:1004E00044EA0326CB680C6989695B1E641E6D1E95
:1004F000491E012A0DD0826802F0704246EA033399
:1005000043EA044343EA055343EA0161114381602E
:1005100010E08268084F3A401B0343EA0553134337
:10052000C26802F0704246EA044444EA01611143A1
:100530008360C1600020F0BDFF0F0FFF70B500EBBE
:1005400001121832436890F83830012B20D0012571
:1005500080F83850022380F8393054680A2C19D0BA
:10056000092C17D01389167B1B0443EA0663234327
:100570001B4CB9B10168CE6926401E43CE610368A9
:100580001168196151680A291FD009291DD021E07D
:10059000022070BDD368168903F07F4343EA064307
:1005A0002343E5E701684E6A26401E434E62036816
:1005B0001168996151680A2901D009290AD1D168C5
:1005C000026821F07F41916204E0D168026821F065
:1005D0007F4111623830457000210170002070BDEC
:1005E000F0FFFC0070B50446002C04D094F83900EC
:1005F000002510B106E0012070BD84F83850204677
:1006000000F01EF8022084F8390020680168626852
:1006100021F44031114301602068416BA26821F050
:100620000701114341632068016CE2686FF30D011B
:1006300011430164E563012084F83900002070BD96
:1006400070472DE9F84304460D46002600962068C1
:1006500000684FF00407C0074FF0030838D000F0DF
:10066000ABF9814630E040680090009810F0210F0F
:1006700017D00098800603D5E06B40F00200E063DD
:100680000098C00703D0E06B40F00100E0632168F0
:100690002120886084F8397084F838600120BDE832
:1006A000F883681C10D02DB100F086F9A0EB09008A
:1006B000A84209D9E06B40F02000E06384F839805B
:1006C00084F838600320EAE7206841688907CAD5C2
:1006D0002068C169890602D4406A80063ED500F0D0
:1006E0006BF9814636E040680090009810F0290FC1
:1006F0001DD00098000703D5E06B40F00400E063D4
:100700000098800603D5E06B40F00200E06300989B
:10071000C00703D0E06B40F00100E06321682920AE
:10072000886084F8397084F838600120B7E7681C65
:1007300010D02DB100F040F9A0EB0900A84209D972
:10074000E06B40F02000E06384F8398084F8386082
:100750000320A4E720684168C906C4D52168122097
:100760008860012084F8390084F83860002096E71A
:1007700038B50446049894F83850012D10D001255E
:1007800084F83850022584F8395000902046FFF74D
:10079000FBFD2068016841F001010160002038BDC7
:1007A000022038BD70B5044600F006F90546601C0D
:1007B00002D004480078044400F0FEF8401BA04238
:1007C000FAD370BD040000202DE9F84F0022DFF8B5
:1007D000A491DFF8A08109F108094FF0010E4FF054
:1007E0000F0C09F1040A0EFA02F60B683340B3420B
:1007F00071D14C68022C01D0122C11D1D40800EB1D
:1008000084073D6A5407E40E0CFA04FB25EA0B0545
:10081000D1F810B00BFA04FB4BEA050BC7F820B077
:10082000076854000325A540AF4391F804B00BF0CE
:10083000030B0BFA04FB4BEA070BC0F800B04F6840
:10084000012F05D0022F03D0112F01D0122F11D16B
:100850008768AF43D1F80CB00BFA04FB4BEA070BE7
:10086000C0F808B04768B7430E79C6F30016964043
:100870003E434660C668AE438D68A5403543C560BB
:100880004C68E4006FD53C4C256845F480452560F4
:10089000246804F480440094384C22F00305254475
:1008A000D5F808789407260F0CFA06F4A743344CC1
:1008B000A04201D100242EE0324CA04201D10124FB
:1008C00029E0314CA04201D1022424E02F4CA04267
:1008D00002D103241FE046E02D4CA04201D10424A4
:1008E00019E02C4CA04201D1052414E02A4CA0426E
:1008F00001D106240FE0294CA04201D107240AE0CF
:10090000274CA04201D1082405E0264CA04201D189
:10091000092400E00A24B4403C43C5F80848D8F84C
:1009200000409C434D68ED0300D51C43C8F80040CF
:10093000104D2D1D2C689C434E68B60300D51C43FA
:100940002C60D9F800409C434D68ED0200D51C4353
:10095000C9F80040DAF800409C434D68AD0200D56C
:100960001C43CAF80040521C102AFFF43CAFBDE8FB
:10097000F88F0000003C0140443802400030014044
:10098000000002400004024000080240000C024047
:10099000001002400014024000180240001C0240F7
:1009A0000020024000240240002A01D081617047EB
:1009B00009048161704700000148806870470000A9
:1009C0000400002002488168027811448160704769
:1009D0000400002070B504460D4D4FF47A7128785C
:1009E000B1FBF0F00B490968B1FBF0F000F04CFDF1
:1009F00008B1012070BD102C07D200222146501EE4
:100A000000F0D2F86C60002070BD012070BD0000C5
:100A100004000020000000202DE9F04104460F46AC
:100A2000154694F8A00001281ED0012684F8A06085
:100A3000022084F8A10005EB850000EBC50004EB63
:100A40008000383034223946FFF7FFFB2A4639460A
:100A5000204601F03BF92068466284F8A16000203E
:100A600084F8A000BDE8F0810220FBE770B50446E1
:100A7000002C04D094F8A100002510B106E001205C
:100A800070BD84F8A050204600F06AF8022084F877
:100A9000A1002068816921F070418161D4E90110D1
:100AA0000143D4E9030210430143206882691143E2
:100AB00081612068826829490A408260A08A020414
:100AC00020688368A6693343134383602068C26843
:100AD0000A40C260A08B02042068C368266A3343C0
:100AE0001343C360206802690A400261A08C0204BB
:100AF00020680369A66A334313430361206842698F
:100B00000A404261A08D010420684269236B1A43A8
:100B10000A43426194F83500020294F83600010459
:100B20002068C36A03F07F43C3622068C36A94F8F5
:100B30003460114333430B43C3622068416B41F07F
:100B4000060141632068816941F001018161C4F8B7
:100B5000A450012084F8A100002070BD00F800F02E
:100B6000704770B50446084694F8A010012918D0C3
:100B7000012584F8A050022184F8A11002EB820123
:100B800001EBC20104EB810138314861204601F0DC
:100B90009DF82068456284F8A150002084F8A000E8
:100BA00070BD022070BD0000F0B40D460D4B1B68F7
:100BB000C3F30223C3F10704042C00D90424191D34
:100BC000072901D2002300E0DB1E012606FA04F10A
:100BD000491E294099409E40761E16403143F0BC84
:100BE00001F025B90CED00E02DE9F8431848016843
:100BF00041F080510160006800F080500090DFF803
:100C000054800127C8F84070FFF7D6FE05464FF420
:100C10007A76114C07E0FFF7CFFE401BB04202D9B5
:100C20000320BDE8F8836068C003F4D5C8F84470B9
:100C3000FFF7C2FE054606E0FFF7BEFE401BB042CE
:100C400001D90320EDE760688003F5D50020E8E7CF
:100C50004038024000000E42007000402DE9F84F7D
:100C60000446DFF81CA22068DFF81892864DC10701
:100C70004FF001084FF0000701D1800741D5CAF8B5
:100C80006870FFF799FE064607E0FFF795FE801BA8
:100C9000022802D90320BDE8F88F28680001F4D4A7
:100CA00020787A49C00705D06068227A800140EA3E
:100CB000027008602078800713D50868C0F30270BE
:100CC0006268237B920142EA036242EA0070086094
:100CD000D9F80000E16920F01F00491E0843C9F857
:100CE0000000CAF86880FFF767FE064606E0FFF7D7
:100CF00063FE801B022801D90320CCE7286800018D
:100D0000F5D52068410701D4000750D5CAF87070A6
:100D1000FFF752FE064606E0FFF74EFE801B022854
:100D200001D90320B7E72868C0438000F4D52078B4
:100D30005749400714D50868C0F302702269237D23
:100D4000920142EA036242EA00700860D9F80000AA
:100D500020F4F852206A401E42EA0020C9F8000040
:100D60002078000712D50868C0F303602269920159
:100D700042EA0060227E40EA02700860D9F8000072
:100D8000616A20F440300843C9F80000CAF8708056
:100D9000FFF712FE064606E0FFF70EFE801B022854
:100DA00001D9032077E72868C0438000F4D4207875
:100DB000800653D534484030016841F080510160CD
:100DC000006800F080500090324D286840F4807038
:100DD0002860FFF7F1FD064606E0FFF7EDFD801BFA
:100DE000022801D9032056E72868C005F5D5274D0C
:100DF000143D286800F44070F8B1218D01F4407171
:100E000081421AD0286820F440702349C1F800803C
:100E10000F6028602868C0070FD0FFF7CDFD064699
:100E200041F2883706E0FFF7C7FD801BB84201D9C1
:100E3000032030E728688007F5D5A06A1249C0F37F
:100E400001220831032A12D0086820F4F810086043
:100E50002868218DC1F30B01084328602078C00663
:100E600003D50E4994F82C000860002013E70A68A7
:100E70000B4B22F4F812184002430A60E8E7000026
:100E8000000047428C38024000380240843802405B
:100E90008838024000700040400E4742E01147424F
:100EA000FFFCFF0F2DE9F04704460D46002C13D040
:100EB000DFF82491D9F80000EFB200F00F00A8424B
:100EC0000CD289F80070D9F8000000F00F00A84299
:100ED00004D00120BDE8F0870120FBE720683F4EE9
:100EE000810712D5400703D5306840F4E0503060E8
:100EF0002078000703D5306840F4604030603068E7
:100F0000A16820F0F000084330602078C00731D09D
:100F1000324960680839012808D002280BD003281C
:100F200009D0096889070BD40120D3E70968890330
:100F300006D40120CEE70968890101D40120C9E760
:100F4000316821F0030101433160FFF735FD804630
:100F500041F2883A07E0FFF72FFDA0EB080050456B
:100F600001D90320B6E73068616800F00C00B0EBEF
:100F7000810FF0D1D9F8000000F00F00A84209D984
:100F800089F80070D9F8000000F00F00A84201D0E5
:100F900001209FE72078400705D53068E16820F4FC
:100FA000E050084330602078000706D5306821699A
:100FB00020F4604040EAC100306000F015F831686C
:100FC000074AC1F30311515CC840064908600F206D
:100FD000FFF700FD00207DE7003C0240083802409A
:100FE0004C6D02080000002010B51748006810F092
:100FF0000C01164816D0164B042912D0082911D11D
:10100000114C241F216801F03F02216849020AD5D2
:101010002068C0F38810A0FB03010023FFF7E4F869
:1010200009E0184610BD21680023C1F38811A1FB17
:101030000001FFF7D9F82168C1F30141491C4900BB
:10104000B0FBF1F010BD0000083802400024F400AD
:1010500040787D012DE9F84F0446002C10D020780F
:10106000DC4DC00757D0DB4808300168C1F381016F
:1010700001290DD00068C0F38100022803D00EE0E2
:101080000120BDE8F88FD348001D0068400206D556
:10109000286880033FD5606870BB0120F1E7606875
:1010A000B0F5803F10D0B0F5A02F12D0286820F402
:1010B00080302860286820F4802028606068E0B1D3
:1010C000FFF77AFC064614E0286840F48030286078
:1010D000F4E7286840F480202860286840F48030D5
:1010E0002860EBE7FFF768FC801B642801D9032028
:1010F000C7E728688003F5D50DE0FFF75DFC0646DD
:1011000006E0FFF759FC801B642801D90320B8E7EB
:1011100028688003F5D42078AF4F80074FF000088F
:1011200049D5AC480830016811F00C0F09D00068AF
:10113000C0F38100022814D1A648001D00684002B7
:101140000FD42868800704D5E068012801D0012069
:1011500097E72868216920F0F80040EAC10028607C
:1011600029E0E068B8B101203860FFF725FC0646A9
:1011700006E0FFF721FC801B022801D9032080E74D
:1011800028688007F5D52868216920F0F80040EA32
:10119000C10028600FE0C7F80080FFF70DFC06468D
:1011A00006E0FFF709FC801B022801D9032068E74D
:1011B00028688007F5D42078000729D5DFF8149235
:1011C0008648616909F1740989B101210160FFF75D
:1011D000F3FB064606E0FFF7EFFB801B022801D970
:1011E00003204EE7D9F800008007F4D510E0C0F8DE
:1011F0000080FFF7E1FB064606E0FFF7DDFB801B02
:10120000022801D903203CE7D9F800008007F4D474
:101210002078400772D50026DFF8B8A10AF1400A0D
:10122000DAF80000C0000BD4DAF8000040F080507B
:10123000CAF80000DAF8000000F0805000900126A3
:10124000DFF89CB1DBF80000C00515D4DBF8000026
:1012500040F48070CBF80000FFF7AEFB814607E05A
:10126000FFF7AAFBA0EB0900022801D9032008E739
:10127000DBF80000C005F3D5DFF858B1A0680BF12A
:10128000700B012813D0052818D0DBF8000020F0DF
:101290000100CBF80000DBF8000020F00400CBF8E0
:1012A0000000A06830B3FFF787FB81461DE0DBF844
:1012B000000040F00100CBF80000F2E7DBF800008E
:1012C00040F00400CBF80000DBF8000040F0010023
:1012D000CBF80000E5E7FFF76FFBA0EB090141F257
:1012E0008830814201D90320CBE6DBF8000080077B
:1012F000F1D512E0FFF760FB81460AE015E0FFF749
:101300005BFBA0EB090141F28830814201D9032047
:10131000B7E6DBF800008007F1D4012E05D1DAF83A
:10132000000020F08050CAF80000A069C0B329492D
:1013300008310968C1F38101022949D0022805D08A
:10134000C7F86080FFF738FB04463CE0C7F86080D0
:10135000FFF732FB064606E0FFF72EFB801B022854
:1013600001D903208DE628688001F5D4D4E907016E
:101370000843616AA26A4FF0FF33890103EB52020E
:1013800041EA0241084394F82C1040EA01611148F7
:10139000001D016001203866FFF70EFB044607E0E0
:1013A00014E0FFF709FB001B022801D9032068E6BF
:1013B00028688001F5D509E0FFF7FEFA001B022836
:1013C00001D903205DE628688001F5D4002058E6A5
:1013D000012056E60038024000004742800E474296
:1013E0000070004070B504460D46002C03D094F800
:1013F0002C0010B107E0012070BD002084F82D0002
:10140000204600F011F8022084F82C00211D2068ED
:10141000FFF70AF8D4E900022946FFF757F8012040
:1014200084F82C00002070BD704710B5044694F875
:101430002C0002280AD0022084F82C002068FFF734
:101440001CF8012084F82C00002010BD022010BDE3
:1014500070B504460D4694F82C0002280ED00220E8
:1014600084F82C0029462068FFF70DF82868022828
:1014700006D0012084F82C00002070BD022070BD31
:10148000052084F82C00F7E710B5401EB0F1807FEE
:1014900001D3012010BD4FF0E02460610F216017DF
:1014A00000F0C5FC0020A06107202061002010BDD5
:1014B000FEE700001CB5044600F0AAFA034600F05F
:1014C00097FA02460020CDE900040648064C006861
:1014D00000EB800101EBC00104EB8101C96D00F05C
:1014E000A1FB1CBD100000209402002010B509488B
:1014F0000068816941F001018161074C01221021DE
:101500002046FFF751FA20460122BDE81040802115
:10151000FFF74ABA94020020000C0240F0B50346DF
:101520000C463A4E3A4D306800EB800101EBC000AA
:1015300005EB8000806C002817D0012824D092B2DF
:10154000022853D0042851D007284FD000F050FA79
:1015500004FB0031306800EB800303EBC00005EBB7
:101560008000C06D20F81120F0BD00F041FA04FBAE
:101570000031306800EB800303EBC00005EB800016
:10158000C06D40F82120F0BD00F032FA04FB0030BD
:1015900000EB40013068891C00EB800707EBC000BE
:1015A00005EB8000170CC06D475400F021FA04FBD6
:1015B000003000EB40013068491C00EB800707EB6E
:1015C000C00005EB8000170AC06D475400F010FA08
:1015D00004FB003000EB4001306800EB800303EBBC
:1015E000C00005EB8000C06D4254F0BD00F000FA71
:1015F00004FB0031306800EB800303EBC00005EB17
:101600008000C06D20F81120F0BD00001000002007
:10161000940200202DE9F04F87B0EB48016841F0BB
:1016200080010160016801F080010191016841F0D1
:1016300080010160016801F080010191016841F0C1
:1016400080010160016801F080010191016841F0B1
:1016500002010160016801F002010191016841F09D
:1016600001010160016801F001010191016841F08F
:1016700001010160016801F001010191016841F07F
:1016800002010160016801F002010191016841F06D
:1016900040010160016801F040010191016841F0E1
:1016A00010010160016801F010010191016841F031
:1016B00010010160016801F010010191016841F021
:1016C00080010160016801F080010191016841F031
:1016D00040010160016801F040010191016841F0A1
:1016E00040010160016801F040010191016841F48D
:1016F00080710160016801F480710191016841F01D
:1017000004010160016801F004010191016841F4E4
:1017100080710160016801F480710191016841F0FC
:1017200010010160016801F010010191016841F0B0
:1017300040010160016801F040010191016841F040
:1017400008010160016801F008010191016841F0A0
:1017500008010160016801F008010191016841F48C
:1017600080710160016801F480710191016841F0AC
:1017700001010160016801F001010191016841F07E
:1017800002010160016801F002010191016841F06C
:1017900002010160016801F002010191016841F05C
:1017A00040010160016801F040010191016841F4CC
:1017B00080710160016801F480710191016841F458
:1017C00080710160016801F480710191016841F04C
:1017D00020010160016801F020010191016841F0E0
:1017E00008010160016801F008010191016841F000
:1017F00008010160006800F00800019002250595CD
:10180000039501200490042002900E24069402A95E
:101810006E48FEF7D9FF08200290069402A96B4893
:10182000FEF7D2FFE8010290069402A96748FEF78E
:10183000CBFF012002904FF00908CDF8188002A9D3
:101840006348FEF7C1FF4FF4006ACDF808A0069484
:1018500002A96048FEF7B8FF4FF4805BCDF808B0EE
:10186000069402A95B48FEF7AFFF0295CDF81880F9
:1018700002A95748FEF7A8FF40260296069402A93F
:101880005548FEF7A1FF20200290069402A9534874
:10189000FEF79AFF0296069402A95048FEF794FFBD
:1018A00028030290069402A94848FEF78DFF6F02B4
:1018B0000297CDF8188002A94748FEF785FFA803D4
:1018C0000290069402A94148FEF77EFF0120029093
:1018D000069402A94248FEF777FF4FF08008CDF842
:1018E0000880069402A93F48FEF76EFF042002908C
:1018F000069402A93A48FEF767FF4FF01009CDF8A9
:101900000890069402A93548FEF75EFFCDF808B0AE
:10191000069402A93048FEF757FF02960694DFF8B6
:10192000C8B002A95846FEF74FFFCDF808A00694AC
:1019300002A92948FEF748FFCDF80890069402A9AD
:101940002748FEF741FF08200290069402A921488B
:10195000FEF73AFFE8010290069402A91C48FEF740
:1019600033FF2E020296069402A91948FEF72CFFB7
:10197000CDF80880069402A91748FEF725FF0297C4
:10198000069402A91648FEF71FFF0296069402A9C4
:101990001348FEF719FF0297069402A91348FEF7B1
:1019A00013FFCDF80890059501200390049002A93B
:1019B0005846FEF709FFCDF8088002A95846FEF701
:1019C00003FF07B0BDE8F08F30380240001C024032
:1019D00000040240000002400018024000100240D3
:1019E0000020024000080240000C024000140240A7
:1019F0000548006800EB800101EBC000034901EBE2
:101A00008000006E7047000010000020940200204B
:101A10000548006800EB800101EBC000034901EBC1
:101A20008000406E704700001000002094020020EB
:101A300030B58DB000252848016841F08061016013
:101A4000006800F08060009023481438016841F479
:101A500000010160006800F400000090FFF7DAFD6B
:101A600000F03EFC1E4C1D4820606561A5612E20E3
:101A7000E0611720206240F24E30606240F2F710C1
:101A8000A0624FF45970E06240F20D2020630820FC
:101A90000190C0200590052007904FF480300A90F7
:101AA00001A8FFF7DBF84FF4487020664FF4F070A0
:101AB000606684F8365084F8355084F83450656098
:101AC000A560E56025612046FEF7D0FF054800F0DF
:101AD00055F80DB030BD00004438024000680140A8
:101AE000940200201400002030B58DB004460B464F
:101AF000154600220092FFF77BFF01900292FFF74C
:101B000087FF039004950993FF20059006928DF8B6
:101B100030208DF831208DF832204FF4C0600790CE
:101B200007200890FFF764FF0A90FFF771FF0B9002
:101B3000224669460C48FEF76FFF0B4A04EB44004F
:101B4000E83202EB80014FF0FF334B60074B8B60B4
:101B50004FF07F4142F8201003480068416A41F08D
:101B6000010141620DB030BD94020020140000203C
:101B70000149086070470000100000200449054A30
:101B8000096801EB410102EB8101886070470000A8
:101B9000100000207C03002002460148FEF7E1BF50
:101BA00094020020F0B587B01C48016841F0800124
:101BB0000160016801F080010191016841F080013C
:101BC0000160016801F080010191016841F080012C
:101BD0000160006800F0800001904FF4806402947E
:101BE000012003900490032005900D4F02A9384670
:101BF000FEF7EAFD6500029502A93846FEF7E4FD0E
:101C0000A600029602A93846FEF7DEFD0448183009
:101C100004600560066007B0F0BD00003038024087
:101C2000001C02402DE9F8430546DDE908080E4690
:101C300017461C46224A4FF4403151602149096839
:101C400001EB810303EBC103A2F1A80101EB8301C6
:101C5000896C022907D049B101290AD003290BD088
:101C600004290CD00DE0022191600AE0002191606E
:101C700007E00121916004E00321916001E004216B
:101C80009160D060104810600D48FEF7ABFC002852
:101C900014D129460A48FEF751FC00280ED13B46D4
:101CA0003246414606480094FEF762FD002805D101
:101CB000BDE8F84364210248FEF7C3BCBDE8F883E1
:101CC0003C0300201000002000B00240F0B5036883
:101CD0008C88DD68C5F30B452C442504882404EB6F
:101CE000C2141E5906F470461E5103680F68DE6860
:101CF000C6F30B46761C3E442E431E5103688C8966
:101D0000DD68C5F30A052C4425048C2404EBC214B9
:101D10001E5906F470461E5103688F68DE68C6F3CC
:101D20000A06761C3E442E431E519423046803EB9E
:101D3000C213E55825F00705E55005680C69EC501D
:101D400091F831304FEA032C91F832301E040B7EAB
:101D50001F069C23046803EBC213E5580025E550D9
:101D600091F830403E4344EA0C0434430668F45092
:101D70009823046803EBC213E65826F0FF06E650EA
:101D800006684C69F450A023046803EBC213E658BC
:101D900040F20777BE43E650D1E907463443066870
:101DA000F450AC23046803EBC213E658E550056811
:101DB0004C6AEC500B69002B31D0012B31D0042B35
:101DC00031D0022B2FD0032B2DD0072B2BD001236A
:101DD000B024056804EBC2142E5906F0E0262E51FB
:101DE000D1E90065AD1B5D430E8DED1C5E4345EAF8
:101DF000064305682B51B423046803EBC213E5586E
:101E00006FF30A05E5500468C96AE150006884214F
:101E100001EBC211425842F001024250F0BD0423CE
:101E2000D6E70323D4E70223D2E7FEE7704709078A
:101E3000090E002806DA00F00F0000F1E02080F81B
:101E4000141D704700F1E02080F8001470477047BF
:101E50002DE9F04F87B0FE48016841F02001016094
:101E6000016801F020010191016841F02001016049
:101E7000016801F020010191016841F02001016039
:101E8000016801F020010191016841F02001016029
:101E9000016801F020010191016841F02001016019
:101EA000016801F020010191016841F02001016009
:101EB000016801F020010191016841F020010160F9
:101EC000016801F020010191016841F020010160E9
:101ED000016801F020010191016841F020010160D9
:101EE000016801F020010191016841F020010160C9
:101EF000016801F020010191016841F04001016099
:101F0000016801F040010191016841F04001016068
:101F1000016801F040010191016841F04001016058
:101F2000016801F040010191016841F00801016080
:101F3000016801F008010191016841F008010160A8
:101F4000016801F008010191016841F00801016098
:101F5000016801F008010191016841F00801016088
:101F6000016801F008010191016841F01001016070
:101F7000016801F010010191016841F01001016058
:101F8000016801F010010191016841F01001016048
:101F9000016801F010010191016841F01001016038
:101FA000016801F010010191016841F01001016028
:101FB000016801F010010191016841F01001016018
:101FC000016801F010010191016841F01001016008
:101FD000016801F010010191016841F010010160F8
:101FE000016801F010010191016841F010010160E8
:101FF000016801F010010191016841F008010160E0
:10200000016801F008010191016841F008010160D7
:10201000016801F008010191016841F008010160C7
:10202000016801F008010191016841F0800101603F
:10203000016801F080010191016841F040010160F7
:10204000016801F040010191016841F04001016027
:10205000016801F040010191016841F00401016053
:10206000016801F004010191016841F02001016063
:10207000016801F020010191016841F04001016017
:10208000016801F040010191016841F040010160E7
:10209000016801F040010191016841F08001016097
:1020A000016801F080010191016841F010010160B7
:1020B000016801F010010191016841F01001016017
:1020C000006800F0100001900220039001200490AD
:1020D000022005900C2006900120029002A95D4884
:1020E000FEF772FB0220029002A95A48FEF76CFB31
:1020F0000420029002A95748FEF766FB08200290D0
:1021000002A95448FEF760FB1027029702A9514824
:10211000FEF75AFB4FF02008CDF8088002A94D4881
:10212000FEF752FB3802029002A94A48FEF74CFB28
:102130004FF40059CDF8089002A94648FEF744FB39
:10214000BD02029502A94348FEF73EFB6C000294D3
:1021500002A94048FEF738FB0120029002A93E4840
:10216000FEF732FB0220029002A93B48FEF72CFB4F
:102170000420029002A93848FEF726FB029502A926
:102180003648FEF721FB029402A93448FEF71CFBF7
:102190000120029002A93148FEF716FB02200290AE
:1021A00002A92E48FEF710FB8020029002A92C48BD
:1021B000FEF70AFBE611029602A92948FEF704FB86
:1021C000A011029002A92648FEF7FEFA4FF4806A99
:1021D000CDF808A002A92248FEF7F6FA4FF4006BEA
:1021E000CDF808B002A91E48FEF7EEFAE010029002
:1021F00002A91B48FEF7E8FACDF8089002A9184892
:10220000FEF7E2FA029502A91548FEF7DDFA0294FC
:1022100002A91348FEF7D8FA029602A90F48FEF762
:10222000D3FAA011029002A90C48FEF7CDFACDF81E
:1022300008A002A90948FEF7C7FA40200290094DFC
:1022400002A92846FEF7C0FA029702A902480BE04D
:10225000303802400014024000180240000C0240D6
:1022600000100240001C0240FEF7AEFACDF80880D4
:1022700002A91748FEF7A8FA0120029002A9154802
:10228000FEF7A2FACDF808B002A91348FEF79CFAAF
:10229000029402A90E48FEF797FA029602A90C488A
:1022A000FEF792FA8020029002A92846FEF78CFAE7
:1022B0000220029002A90948FEF786FA0120029046
:1022C00002A90648FEF780FA07B0BDE8F08F0000CB
:1022D00000180240000802400014024000100240B2
:1022E00000B589B0FFF7B4FD00211848026842F03C
:1022F00001020260006800F0010001901548144AD4
:1023000002600122426082600822C26010220261E3
:10231000402242614FF4C0728261C1614FF4006299
:1023200002624162910081620220029007210391C2
:1023300004220492059106900790089002A905488E
:10234000FFF750F800F008F809B000BD3838024037
:10235000400100A0300200202DE9F047204C01256B
:10236000256008266660A5600027E7604FF6FF79C4
:1023700021464A4601F11000FFF76AF8012000F0FB
:1023800031F8022020606660A560E76021464A4679
:1023900001F11000FFF75CF80320206066604FF049
:1023A0000408C4F80880E76021464A4601F110009D
:1023B000FFF74EF840F23120C4F800806660A56057
:1023C000E06021464A4601F11000FFF741F804F1B0
:1023D0001000BDE8F04740F2AB21FFF726B800003F
:1023E0002002002001B581B00549019848430090C2
:1023F00002E00098401E009000980028F9D10CBD22
:10240000A0860100704710B5FEF7DCFABDE8104069
:1024100001201EF035BD000030B593B000251E48E8
:10242000016841F080510160006800F08050019027
:102430001A48016841F440410160006800F44040DE
:10244000019001200290000403900224089480016E
:10245000099019200A904FF4B4700B900C94072047
:102460000D9002A8FEF7F6FD00B1FEE7FEF7BCFBFB
:102470000F200E900F9410954FF4A05011904FF430
:102480008050129005210EA8FEF70CFD002800D008
:10249000FEE713B030BD000040380240007000403D
:1024A0001048016841F4700101600F48016841F073
:1024B000010101600C4A00210832116002680B4BD7
:1024C0001A400260031D0A4A1A60026822F4802240
:1024D000026005480C3001600249580680390860E6
:1024E0007047000088ED00E000380240FFFFF6FE74
:1024F00010300024FEE702E008C8121F08C1002ABD
:10250000FAD170477047002001E001C1121F002A74
:10251000FBD1704770B5044600256FF02F0608E028
:102520002068411C2160007805EB850106EB410124
:1025300045182068007800F004F80028F0D12846FB
:1025400070BD3038092801D801207047002070473D
:1025500010B54421074800F0E6FC00221E21064881
:102560001EF0E8FC054CA06001F0CEFE00202070BB
:1025700010BD0000C4040020BD43000884000020FA
:102580002DE9FC4107460D4616463146284600F027
:1025900022F940B100223146284600F0BCF828B1AB
:1025A0000020BDE8FC814FF0FF30FAE70024284608
:1025B0000EF048FC401E0FFA80F828460EF0F1FBA2
:1025C000401E02B27088B5F90210401A00B200280D
:1025D0000FDD2B88ADF80030ADF80210AB88ADF8F8
:1025E00004300844ADF806000098386001980124D2
:1025F0007860B6F906006988411A511A09B20029B3
:1026000017DDB5F90620904213DA2A88ADF80020CC
:10261000ADF80200AA88ADF804200844ADF8060021
:10262000204607EBC00000990160641C019964B268
:102630004160B6F90200B5F90210884200DC084694
:10264000B6F90610B5F90620914200DB1146091AC9
:1026500009B23288B5F90030D21A12B2002A14DD5C
:10266000002912DDADF80030ADF802001A44ADF8D3
:1026700004204218ADF80620224607EBC202009B58
:102680001360641C019B64B25360B6F904202B886C
:10269000D31AA8EB03031BB2002B12DDADF8002008
:1026A000ADF802001A44ADF804200844ADF8060065
:1026B000204607EBC00000990160641C019964B2D8
:1026C000416020466DE770B5B1F90040B2F90030C5
:1026D0009C4200DD23460380B1F90240B2F902506A
:1026E000AC4200DC2C464480B1F90460B2F90450DD
:1026F000AE4200DA35468580B1F90610B2F90620FF
:10270000914200DB1146C1800120AB4201DC8C42CA
:1027100000DD002070BDF8B504460D4616460020C9
:10272000B4F90010B5F90020914212DBB4F902208F
:10273000B5F902309A420CDBB4F90420B5F9043043
:102740009A4206DCB4F90620B5F906309A4200DC5C
:10275000012088B38EB3ADF800106088ADF8020098
:1027600032466946284600F0ACF838B3A088ADF888
:1027700000006088ADF8020032466946284600F045
:10278000A0F810B32088ADF80000E088ADF8020092
:1027900032466946284600F094F8C0B1A088ADF8EA
:1027A0000000E088ADF8020032466946284600F095
:1027B00088F870B10120F8BD01E002E003E00020DC
:1027C000F9E70120F7E70020F5E70020F3E7002014
:1027D000F1E70020EFE7B0F90020B1F904309A42A8
:1027E00013DCB0F90420B1F900309A420DDBB0F9E6
:1027F0000220B1F906309A4207DCB0F90600B1F9BF
:102800000210884201DB0120704700207047F8B5B4
:1028100004460D461646B4F90400B5F90010884286
:1028200011DBB4F90600B5F9021088420BDBB4F9EC
:102830000000B5F90410884205DCB4F90210B5F9BE
:102840000620914201DD0120F8BD66B1ADF800001F
:102850006088ADF8020032466946284600F031F83B
:1028600018B10020F8BD0020F8BDA088ADF8000028
:102870006088ADF8020032466946284600F021F82B
:1028800008B10020F8BD2088ADF80000E088ADF860
:10289000020032466946284600F013F808B10020CD
:1028A000F8BDA088ADF80000E088ADF8020032461F
:1028B0006946284600F005F808B10020F8BD01205F
:1028C000F8BD2DE9FC4105460F4614460020B7F936
:1028D0000010B5F9002091420EDBB5F904209142B9
:1028E0000ADCB7F90210B5F90220914204DBB5F910
:1028F0000620914200DC012020B1002C04DC0120E4
:10290000BDE8FC810020FBE728460EF09BFA00EBB7
:10291000D070461028460EF044FA00EBD0704010FC
:10292000864200DA3046844200DD04462888ADF84D
:10293000000028882044ADF804006888ADF8020043
:1029400068882044ADF80600002239466846FFF743
:10295000B8FF70B1BDF804002044ADF80400BDF824
:1029600006002044ADF80600394668461BF062FEBA
:10297000C6E7E888001BADF80200E888ADF806005D
:10298000002239466846FFF79CFF70B1BDF804008D
:102990002044ADF80400BDF80200001BADF80200B1
:1029A000394668461BF046FEAAE7A888001BADF82A
:1029B0000000A888ADF80400002239466846FFF7F9
:1029C00080FF70B1BDF80000001BADF80000BDF83D
:1029D0000200001BADF80200394668461BF02AFED3
:1029E0008EE76888ADF8020068882044ADF80600DC
:1029F000002239466846FFF764FF70B1BDF8000059
:102A0000001BADF80000BDF806002044ADF806003C
:102A1000394668461BF00EFE72E7012070E710B5DC
:102A2000B1F90030B2F90040A34200DB2346038035
:102A3000B1F90230B2F90240A34200DB23464380E1
:102A4000B1F90440B2F904309C4200DD2346838092
:102A5000B1F90610B2F90620914200DC1146C1809E
:102A600010BD0000F8B504461EF000FA0746002528
:102A70000095364E2CB1E068706020461EF030FBA9
:102A800002E010F027FC7060706800691BF0BAFC6F
:102A90007068406908B11BF0B5FC7068C0691BF034
:102AA000B1FC7068006A1BF0ADFC7068016991B1FF
:102AB0001BF060FE20F0D0FA1FF0E8FF7068B0F85D
:102AC0005011D9B30068017CC9071DD0C0684068A7
:102AD000D0B1002413E0A0F85051F8BD011991F8CD
:102AE000301151B900F5AC7000F07DFA716801EB5E
:102AF000C4010A6B0260496B4160641CA4B2706837
:102B0000B0F85011A142E9D870684FF480713030AC
:102B100016F044FF7068202100F5987016F03EFF13
:102B20007068A0F8505138461EF094F90090706813
:102B30000068436A13B132680099984716F0B4FDF3
:102B400000F030F8BDE8F84000F002B8480000207E
:102B500070B50024084EC4EBC40556F8250008B132
:102B600016F018FE06EB85001C2116F017FF641CFA
:102B7000E4B2042CEFD370BDA005002008494968D9
:102B80000AE04A68824202D00A68824203D10A7E81
:102B900042F001020A7649690029F2D1704700002B
:102BA0001C000020704700000421014800F0BBB960
:102BB000B80400202021014800F0B5B9D00400205D
:102BC0002DE9FF410446DDE90A671D460020002D7E
:102BD00002D1B6F5807F2BD0009001900290039037
:102BE000ADF80410ADF80A20ADF80C10ADF80E20C9
:102BF0003B463246294668461BF078FC3B46324647
:102C0000294601A81BF072FC3B463246294602A821
:102C10001BF06CFC3B463246294603A81BF066FCC1
:102C2000BDF90000BDF90410884209DA054608E044
:102C300020806080491EA180521EE280BDE8FF8195
:102C40000D46BDF90820BDF90C309A4201DA16464E
:102C500000E01E46B54203DA884206DB084604E07F
:102C60009A4201DA104600E01846801E2080BDF925
:102C70000020BDF90400824201DD154600E0054652
:102C8000BDF90810BDF90C30994201DD0E4600E097
:102C90001E46B54203DD824206DD104604E099423D
:102CA00001DD084600E01846801CA080BDF9022026
:102CB000BDF906309A4201DA154600E01D46BDF91D
:102CC0000A10BDF90E00814201DA0E4600E0064608
:102CD000B54205DA9A4201DA104604E0184602E0ED
:102CE000814200DA0846801E6080BDF90200BDF90D
:102CF0000630984201DD054600E01D46BDF90A1088
:102D0000BDF90E20914201DD0E4600E01646B542A7
:102D100003DD984206DC184604E0914201DD0846D6
:102D200000E01046801CE08088E70000F7B506460A
:102D30001746114C1EF09AF805463B463146204690
:102D4000019A14F0C7FD20B10020A062E06948B1EB
:102D50000CE02C21204616F021FE4FF00040A0622E
:102D60000020FEBD28461EF075F8E061E06908B954
:102D70000120E0612046FEBDF404002010B51421BE
:102D80000C4800F0D0F814F065FD02468AB10A49FB
:102D9000104614F018FE0949104614F016FE0849B2
:102DA000104614F014FEBDE810400649104614F019
:102DB00008BEFEE7DC040020D1710108C5750108DA
:102DC000BD7701089D7101087FB504460D46002CB2
:102DD00002D110F07FFA0446002C31D0204610F0CA
:102DE000F6FA00282CD094F82800400728D40026B2
:102DF0003DB3ADF80860ADF80A60204610F080FAE7
:102E0000401EADF80C00204610F0CBFA401EADF885
:102E10000E0002AA29466846FFF755FC00280FD08D
:102E20002068017C89070FD5DDE90201C4E90C01A6
:102E30000120A4F850016068002801D01EF05CF960
:102E40007FBDA4F850617FBD82690AB16946904791
:102E500000250AE004EBC501303100226846FFF787
:102E60005AFC0028EFD16D1CADB2B4F85001A84255
:102E7000F0D8B4F85001202806D204EBC00030305E
:102E800069460DF016FF06E0A4F8506104F1300029
:102E900002A90DF00EFFB4F85001401CA4F8500137
:102EA00060680028CFD01EF027F97FBD70B50646B8
:102EB000304600F012F804460CE02146304600F09F
:102EC00023F805462146304600F0B8F8204616F0B3
:102ED00061FC2C46002CF0D170BD002801D0406868
:102EE00070470020704700B5034600221846FFF7E0
:102EF000F4FF014604E0521C184600F005F80146B4
:102F00000029F8D1104600BD0068091D084400687A
:102F100070470068084400687047002801D0806846
:102F2000704700207047002242608260C91C21F077
:102F300003010160704770B504462068083016F040
:102F400099FB05469DB10022294620461FF081F9D4
:102F50002946204662681FF073F9616819B12A4654
:102F600020461FF076F96560A06800B9A560284684
:102F700070BD2DE9F04106460D46002E0BD055B12F
:102F80003046FFF7AAFFA8420AD13046FFF7D3FF29
:102F900004461CB123E00020BDE8F0810020FBE7DF
:102FA0003068083016F066FB0446D4B12946304636
:102FB000FFF7AFFF07462246394630461FF040F97B
:102FC0003A46214630461FF044F92246294630460B
:102FD0001FF03FF92A46214630461FF031F92046BE
:102FE000DAE70020D8E770B504462068083016F00C
:102FF00041FB05469DB10022294620461FF020F9DD
:1030000029462046A2681FF024F9A16819B12A4672
:1030100020461FF015F9A560606800B96560284674
:1030200070BD002802D0416811B103E00120704753
:10303000806808B1002070470120704770B50446D1
:103040000B46002C13D02046FFF747FF0022984282
:103050000ED119462046FFF757FF606030B1014698
:103060002046BDE8704000221FF0F3B8A26070BD9A
:103070002046FFF752FF98420ED119462046FFF72F
:1030800048FFA06030B101462046BDE870400022F4
:103090001FF0D6B8626070BD19462046FFF739FFB1
:1030A000054619462046FFF72FFF064632462946B9
:1030B00020461FF0C5F82A4631462046BDE870403C
:1030C0001FF0C7B810B50446206882680AB12146CF
:1030D000904720680068002801D02060F4E710BD08
:1030E0008068002802D0B0F91600704700207047B1
:1030F0008068002802D0807E8009704700207047D9
:1031000070B506460C46154654EA05001CD03046FC
:1031100017F04CFAB068018A21440182B068418AF4
:103120002944418201232A462146304619F013FFE3
:1031300000220B21304613F043FA012803D1304618
:1031400019F054FE012070BD012070BDF7B582B0AA
:1031500005460E46049F002D1ED0284631466222A9
:1031600019F043F901900446200012D0206880B184
:1031700028463146632219F038F90190C2B242B1B3
:1031800023683946204698470190BDF80400ADF801
:103190001000049805B0F0BD3846FBE72DE9F04774
:1031A00094B005461C9C0F4691461E46688C40F024
:1031B00008006884A5F8209022893946284619F02D
:1031C00014F9824613902E8422893946284619F034
:1031D0000CF980461290698C21F0080169848245BF
:1031E00005D1BDF84C00BDF8481088426AD0A5F85A
:1031F000209022893946284619F0F7F88246139024
:103200002E84394628460BF0B4FD218900685246C9
:103210001CF000FD20890B2825D147F6FF79CA450F
:1032200001D0C8451FD1284619F0AAFA00EBD0708A
:103230004610284618F01DF900EBD0704010139985
:10324000494506D1711C421C914200DA00E0411C44
:103250001391C84507D1711C421C914201DA701CC0
:1032600000E0401C12901948FFF765FE064666B361
:103270001398F0601298306135602089B080B76093
:1032800001A80CF03BFF01961148029011480390F1
:10329000114804900020FF2109900A900B9120888A
:1032A0000C90608840420D90E068089000209DF8E6
:1032B000461060F300018DF846102069079001A8C0
:1032C0000CF096FF14B0BDE8F087FEE7E80400209C
:1032D0006165020891670208E1660208142101484D
:1032E000FFF721BEE80400202DE9F84F0746884685
:1032F0009146002500264FF0040A1AE1F8680AEB0F
:10330000C6014058810175D420F07F401BF042F87F
:1033100030EA080112D0002130EA090010D0002064
:10332000814267D0F86850F836B000246A46102110
:1033300058461CF08DF928B101248BE00121EBE700
:103340000120EDE76A46112158461CF081F908B1C9
:1033500001247FE06A46122158461CF079F908B131
:10336000012477E06A46132158461CF071F908B130
:1033700001246FE06A46152158461CF069F908B12E
:10338000012467E06A46142158461CF061F908B12F
:1033900001245FE06A460A2158461CF059F908B139
:1033A000012457E06A466B2158461CF051F908B1D8
:1033B00001244FE06A466C2158461CF049F908B1D7
:1033C000012447E06A46012158461CF041F908B142
:1033D00001243FE06A46042158461CF039F908B13F
:1033E000012437E06A46022158461CF031F910B139
:1033F00001242FE09CE06A46032158461CF028F97E
:1034000008B1012426E06A46052158461CF020F93F
:1034100008B101241EE06A46062158461CF018F93E
:1034200008B1012416E06A46322158461CF010F912
:1034300008B101240EE06A466E2158461CF008F9D6
:1034400008B1012406E06A466D2158461CF000F9D7
:1034500000B1012414B10320BDE8F88F6A46692148
:1034600058461CF0F5F808B1022561E06A466A2169
:1034700058461CF0EDF808B1022559E06A466E2165
:1034800058461CF0E5F808B1022551E06A466D2166
:1034900058461CF0DDF808B1022549E06A4637219C
:1034A00058461CF0D5F808B1022541E06A4638219B
:1034B00058461CF0CDF808B1022539E06A4635219E
:1034C00058461CF0C5F808B1022531E06A46402193
:1034D00058461CF0BDF808B1022529E06A4645218E
:1034E00058461CF0B5F808B1022521E06A46412192
:1034F00058461CF0ADF808B1022519E06A46422191
:1035000058461CF0A5F808B1022511E06A4643218F
:1035100058461CF09DF808B1022509E06A46492189
:1035200058461CF095F808B1022501E005B90125BF
:10353000761C788CC0F30510B0423FF6DFAE28460B
:103540008AE70000014840687047000048000020FA
:103550007047C0F30410072800D90720C0B2704795
:10356000A0F57F41FF3905D030B1712806D20A4954
:10357000085C70471F20704700207047713880B288
:103580000649096829B1064A5268904201D2085C8E
:103590007047002070470000F4C00208B00000200F
:1035A000C400002010B518210348FFF7BCFCBDE89B
:1035B000104001201DF0F0BC940400202DE9F041E2
:1035C00004460D461746002C1AD02046FCF761FE33
:1035D0000646DFF8308029462046D8F80820904774
:1035E0000546D8F808206019394690470146284614
:1035F000721A03E04318E35C2354401C8242F9D260
:10360000BDE8F081E00000202DE9F04180460C4645
:1036100015461F46084E394640467268904720605E
:1036200028B13868726840440021904700E00020CB
:103630002860BDE8F0810000E00000202DE9F04F97
:1036400087B00446DDE910588A4693461E464FF07F
:103650000009002D01D0A5F800906CB1207878B158
:10366000BAF1000F0ED0002708F0020008F00401A4
:1036700008431AD0002008E0002007B0BDE8F08F12
:103680000020FAE70020F8E7401C215C0A2903D05B
:103690000D2901D00029F7D1215C01B1401C002D7A
:1036A000EBD04FF0FF312980E7E75FEA887001D562
:1036B00041F6FF76CDF81890CDF8149023E0CDF8C0
:1036C0001090059838B3002106AA04ABCDE9022179
:1036D000CDE90083204433465A4651461DF048FE4A
:1036E0000499721A16B239440FB288B10599084488
:1036F000059021780A290BD00D2909D0205C0A28D1
:103700000BD00D2809D00598205C08B1002ED6DC1E
:10371000059830B111E00121D6E70598401C0590CD
:10372000F6E7084A05A9204652689047014625B1A8
:103730000022504613F0D3F807B205B12F80059848
:103740009BE70000E00000202DE9F0410646884696
:103750001746002E21D0002F1FD03046FCF799FDD0
:1037600004463846FCF795FD0546280015D02C4444
:103770000B4A41463046926890470146481903E09B
:10378000621BB25C3255641EA042F9D970182A46F9
:103790003946BDE8F04116F0C9B8BDE8F081000037
:1037A000E000002010B5002223290ED103782BB1B0
:1037B0000024012B05D0022B05D006E00122027067
:1037C00003E0047001E0047001220378012B04D1AE
:1037D000202901D1022101700122104610BD2DE9DE
:1037E000F34182B00746039E334600213A4608461D
:1037F0001EF044F805464FF00008CDF80480681C20
:1038000015F038FF04465CB104F8058033463A46AB
:10381000691C20461EF032F804B02046BDE8F08155
:10382000FEE72DE9F04781460D4614461F46DDF8B8
:10383000208012E0660806FB075A51464846C047FA
:10384000002808DD44F30000C0EB5404A4F1010497
:103850000AEB070501E005DA3446002CEAD12046E0
:10386000BDE8F0875046FBE72DE9FF5FDDE910BCBE
:10387000DDE912A7DDE90E64149D4FF030085FEA20
:1038800085791ED46FB15FEAC5790AD005F00C09BD
:1038900059EA0B0905D07F1E03E0A146641C06F817
:1038A0000980544506D2202CF7D303E0A146641CBE
:1038B00006F809805FEAC57903D0BC4201D2202C0A
:1038C000F4D35FEAC5693CD55FEA45590AD44CB1E7
:1038D000544501D0BC4205D1641E1CB1BCF1100F8F
:1038E00000D1641EBCF1100F0BD15FEA856908D4CA
:1038F000202C06D2A4464FF07809641C06F80C90E0
:1039000019E0BCF1100F0BD15FEA856908D5202CB6
:1039100006D2A4464FF05809641C06F80C900AE041
:10392000BCF1020F07D1202C05D2A4464FF062094A
:10393000641C06F80C90202C03D2A446641C06F8E4
:103940000C80202C1CD2BBF1000F06D0A4464FF0F7
:103950002D08641C06F80C8012E05FEA457C06D551
:10396000A4464FF02B08641C06F80C8008E05FEAC0
:10397000057C05D5A4464FF02008641C06F80C8091
:10398000CDE90275CDE9006400F087F804B0BDE828
:10399000F09F2DE9F04F8FB0DDE91BABDDE9199702
:1039A0001D9E189C0025002C01D126F010065FEA10
:1039B000465C0DF11C0800D5FCB1B4FBF7FC07FB1D
:1039C0001C4C0CF0FF0CBCF10A0F02D20CF1300CB5
:1039D0000AE05FEA866E02D54FF0410E01E04FF03B
:1039E000610EF444ACF10A0CAE466D1C08F80EC032
:1039F000B4FBF7F40CB1202DDFD3CDE904ABCDE956
:103A00000085CDE902970696FFF72EFF0FB0BDE8BF
:103A1000F08F2DE9FF4F8FB0DDE91D1BDDE922A9F5
:103A2000DDE92056249F1C98002450EA010201D1B0
:103A300027F010077A050DF11C0802D550EA0102A3
:103A400018D02A463346FCF7CFFBD2B20A2A01D25D
:103A5000303206E0BB0601D5412300E061231A4461
:103A60000A3A2346641C08F8032050EA010201D0F8
:103A7000202CE6D3CDE904A9CDE90084CDE902B537
:103A80000FA806970FC8FFF7EFFE13B0BDE8F08F41
:103A90009A4200D28854704770472DE9FF5F07466D
:103AA000DDE90EB5DDE910891446A24609F00200F1
:103AB00009F00101084313D12E4606E02246641C9A
:103AC0002020039B0199B847761C4645F6D307E0B2
:103AD0002246641C6D1E039B1BF805000199B84724
:103AE000002DF5D15FEA897006D409E02246641CF6
:103AF0002020039B0199B847A4EB0A004045F5D369
:103B000004B02046BDE8F09F2DE9FF4F89B0804604
:103B100000250A98002801D1DFF8DC844FF0000965
:103B2000D0E0252808D0DDE90A132A466D1CC047DD
:103B30000C98401C0C90C5E0491C0C9100240C987A
:103B400001782B2923D004DC202926D0232904D175
:103B500029E02D2915D030290DD000200028EED1E4
:103B600000260C980078FEF7ECFC10B30CA8FEF7CA
:103B7000D1FC06462BE044F00104401C0C900120CF
:103B8000ECE744F00204401C0C900120E6E744F00E
:103B90000404401C0C900120E0E744F00804401CA1
:103BA0000C900120DAE744F01004401C0C90012036
:103BB000D4E70C9908782A2809D1169840C816909D
:103BC000002E02DA44F002047642491C0C910027D0
:103BD0000C9801782E2918D144F48064401C0C9074
:103BE0000078FEF7AEFC20B10CA8FEF793FC074668
:103BF0000BE00C9801782A2907D1169980C91691F3
:103C0000002F00DC0027401C0C900C9801786C29D8
:103C10000AD004DC682913D06A292BD121E0742949
:103C20001AD07A2926D121E044F48074401C0C90EB
:103C300001786C291ED144F40074401C0C9019E0EA
:103C400044F08004401C0C900178682912D144F0A3
:103C50004004401C0C900DE044F48074401C0C9017
:103C600008E044F40074401C0C9003E044F48074B9
:103C7000401C0C900C99087869282DD00EDC622825
:103C80002AD006DC25287BD0502825D0582811D1F1
:103C900022E0632875D064280CD11DE0732871D010
:103CA00004DC6F2818D0702804D115E0752813D0D3
:103CB000782811D0DDE90A132A466D1CC0470C98FC
:103CC000401C0C900C99087800287FF42AAF0B98C0
:103CD00085427DD22A4686E1782813D0582811D013
:103CE000702811D050280FD06F2818D0622818D013
:103CF0000A2224F010040C980078582813D0502879
:103D000011D012E01022F6E7102244F0100040F427
:103D1000807448785628EED1491C0C91EBE70822B4
:103D2000E9E70222E7E744F02004692803D0642889
:103D300001D024F00C04610501D524F001046928A8
:103D400021D064281FD0562870D0A0056FD51698B2
:103D5000CDE90597CDF80890CDE90764C01D20F0A6
:103D600007000492D0E90012CDE900120830DDE925
:103D70000A1316902A464046FFF74BFE0546B1E06F
:103D800025E1B3E0DBE0A00529D51698C01D20F0A1
:103D90000701D1E90003083116911946CDE90597CD
:103DA000CDE907640492002901DA012200E0002233
:103DB000002302921A461B1A8A4104DB0A4600219C
:103DC000404261EB0201CDE900012A46404600E095
:103DD00007E1DDE90A13FFF71CFE054682E0E00576
:103DE00014D5169901C91691CDE90376C10F059432
:103DF0000292002800DC4042CDE90001DDE90A130F
:103E00002A464046FFF7C5FD05466BE0600605D52E
:103E1000169810F8041B1690C8B20CE0200607D5BF
:103E2000169830F8041B169008B204E015E026E05E
:103E3000169901C91691CDE90376C10F0594029236
:103E4000002800DC4042CDE90001DDE90A132A46E2
:103E50004046FFF79EFD054644E0169901C91691BC
:103E600041680968009103680B98421B0A98411940
:103E70004046FFF749FE0544CDF8209032E0E005CA
:103E800010D5CDE903760292169805942A4602C809
:103E9000CDE90019DDE90A1316904046FFF779FDD8
:103EA00005461FE0600605D5169810F8041B16900D
:103EB000C8B20AE0200605D5169830F8041B169003
:103EC00088B202E0169901C91691CDE90192CDE9B7
:103ED000037605940090DDE90A132A464046FFF771
:103EE00058FD05460C98401C0C90EBE60127A007F6
:103EF00006D509E02A46DDE90A136D1C2020C047DB
:103F000038467F1CB042F5D316982A466D1C10F82F
:103F1000041B1690C8B2DDE90A13C047A00706D4F7
:103F200009E02A46DDE90A136D1C2020C047384607
:103F30007F1CB042F5D30C98401C0C90C2E616983A
:103F400050F804BB16900FB1394601E04FF0FF3135
:103F5000584600E0401C027812B1491E4A1CF9D1B3
:103F6000A0EB0B0A600502D5BA4500D3BA46A007FC
:103F700006D512E02A46DDE90A136D1C2020C04751
:103F800050460AF1010AB042F4D306E0DDE90A1313
:103F90002A460BF1010B6D1CC0479BF8000020B1B5
:103FA0006105F3D57F1E791CF0D1A00706D40AE085
:103FB0002A46DDE90A136D1C2020C04750460AF14D
:103FC000010AB042F4D30C98401C0C907AE62A46C1
:103FD000DDE90A136D1C2520C0470C98401C0C908D
:103FE00070E60B9A521EDDE90A130020C0470DB09F
:103FF0002846BDE8F08F0000993A000810B500246B
:10400000002808D000F019F8B0F5803F03D20C2842
:1040100000D80C200446204610BD0A46491E0A421C
:1040200000D0FEE70140401A70470844401E4A1E77
:104030009043114200D0FEE770474A1E114200D063
:10404000FEE70844401E9043704700002DE9F04110
:1040500004460F4601206086002500260BE01BA1C8
:10406000FCF71EF910B16D1CADB202E0608E401C71
:104070006086761CB6B257F8260010B10178002988
:10408000EDD1208EA8421ED0A06A002610B115F0F6
:1040900081FBA662E06A10B115F07CFBE662E800E5
:1040A00015F0E8FAA06238B1680015F0E3FAE062B2
:1040B00018B1A16A11B102E0FEE7FEE70025690030
:1040C00015F06CFC2586BDE8F08100000A000000B8
:1040D0002DE9F84F83460F469BF8090000F00700D2
:1040E00002281DD09146974200DD3A46164603202D
:1040F00000EB460020F003051035DFF8C480DFF840
:10410000C4A0D8F80840DAF80000201AD8F8041043
:104110002A188A4206D2606820F0004060602CE0D5
:10412000B946E0E78D421ED84FF0FF340FE000940F
:104130000022694624480BF0F3FB0022694623481D
:104140000BF0EEFBD8F80800DAF80010401AD8F8A7
:10415000041028448842EAD8D8F80840606820F063
:104160000040606009E0284615F084FA044620000B
:1041700019D0606840F0004060603A4649465846B1
:1041800001F08BFD2060606800F04040401C20F092
:1041900080406060A681A4F80E90002804DA04F143
:1041A0001000A06008E0FEE7D8F8080000F1100158
:1041B000A1602844C8F808002046BDE8F88F000038
:1041C00050000020AC000020DDD7000885F9000871
:1041D00070B586B00022059204920392494CE288A1
:1041E0008A4201D0FF22A270E18090F83C20142581
:1041F00002F003024FF4B476012A26D0022A43D0FB
:10420000A3789A4211D010F8263F03EB031303EB77
:104210004303B3FBF5F32370407800EB001000EB91
:104220004000B0FBF5F06070A27003A804AACDE9CD
:10423000002001EB41004FF6FF7101EA400005ABA1
:104240006278217808F0F8FF3CE0A3789A4210D019
:10425000838C03EB43035B02B3FBF6F3A38090F87C
:10426000270000EB001000EB4000B0FBF5F06070A1
:10427000A27003A804AACDE90020C9B205AB6278F8
:10428000A08808F0D9FF1DE0A3789A4210D0838C53
:1042900003EB43035B02B3FBF6F3A38090F8260025
:1042A00000EB001000EB4000B0FBF5F02070A270B6
:1042B00003A804AACDE90020CAB205AB2178A088E2
:1042C00008F0BAFF9DF814009DF810109DF80C201E
:1042D000D308BDF8042063F3040201928A08BDF8F4
:1042E000041062F34A110191C108BDF8040061F3A2
:1042F000CF200190BDF804000290BDF8080006B080
:1043000070BD0000B401002010B5084C01202070E1
:104310000748FEF7E2FD20B1A068BDE810401CF0A0
:10432000EBBEA068BDE810401CF0DABE840000209F
:10433000C404002010B5044694F84200810709D453
:10434000B4F8401031B1A1F57F42FF3A02D0491EC6
:10435000A4F84010B4F84020A16BAAB909B18207B3
:1043600012D521461448FEF769FEFFF7CDFFE1683C
:1043700009B120468847216909B12046884720466F
:10438000BDE8104015F006BAE26B524222630029E4
:1043900011D0820702D4626B524222634210521C37
:1043A00062F3410084F84200206AA26A2262A0629D
:1043B000E06AE162A06310BDC404002070B5334E12
:1043C00070681CF047FD0546707880F00100707041
:1043D0002F48FEF782FD044652E00020307094F82A
:1043E00042007178C0F380028A423DD061F38200BE
:1043F00084F84200216B4A19030719D4002917DCFD
:10440000002A15DBC00709D1616939B12046884708
:10441000216A01442162A16A0844A062A16809B12D
:104420002046884794F8420040F0080084F8420093
:10443000206B28442063002816DBE16A884200DDF7
:104440002163E169204688470146606A884204D0BA
:10445000616262680AB120689047D4E90B10884213
:1044600002DB2046FFF766FF307820B10848FEF7F0
:1044700034FD044604E021460548FEF745FD0446A8
:10448000002CAAD11CF0F2FC706070BD84000020EA
:10449000C404002070B504460D466068002802D0B0
:1044A0002946FFF7F7FF2268002A04D02946204654
:1044B000BDE87040104770BD89B20CF059BB89B29D
:1044C0000CF095BB2DE9FF4F8FB09846DDE92259DE
:1044D000DDE91C010790069100200490B9F1040F5A
:1044E00016D0B9F1050F17D0B9F1060F18D0B9F1F0
:1044F000140F7DD10120059002260024119908FB9C
:1045000001F00E901098401E0D90481E0C9060E136
:10451000002005900226F0E7012005900326ECE735
:10452000012005900226FFF70DF80068806B0490CB
:10453000E3E71E980799604301EB20231F98069933
:10454000604301EB202219121012002907DB109F93
:10455000B94204DA002802DB119FB84202DB0020D6
:10456000285534E1DFB2D2B2802F05DA4FF0FF33A5
:10457000C7F17F077F0002E00123803F7F00802A90
:1045800006DA4FF0FF3CC2F17F024FEA420A04E034
:104590004FF0010C803A4FEA420ADDF83CB000FBD4
:1045A00008F20B92724301FB06225A4411EB030BF3
:1045B000CDF828B077D4DDF834E0DDF828B0F34545
:1045C00071DC10EB0C0BCDF824B06CD4DDF830E0CE
:1045D000DDF824B0F34566DC03FB06230CFB08FC86
:1045E0000CFB062CDDF814B0BBF1000F70D000E01E
:1045F000F3E0B9F1050F32D0B9F1140F34D0B9F1AD
:10460000060F51D0FF218B46FF208B4507D00BFBB7
:104610000AFBCAF5807E01FB0EBBCBF3072B884259
:1046200006D07843C7F5807E01FB0E00C0F307205B
:10463000584440082855002844D01078517800EBA1
:10464000012003909CF800009CF8011000EB012071
:1046500002901878597800EB0120019041E09178A0
:104660009CF802B09878D0E7DDE90EBE0EEB4B0B5C
:10467000CDF800B0DDF800B0DDF82CE08B44CDF8CB
:1046800020B01EF80B10DDF800B000FB08BB0A9844
:104690001BF80000DDF824E0DDF820B00EFB08FE7A
:1046A0001EF80BB0B1E747E01188BDF81000814259
:1046B00006D0BCF80010814202D01988814202D194
:1046C0000020285583E0FF218B46FF209DE7FFE770
:1046D0001088039018880190BCF800000290FF2019
:1046E0002855BDF80C00BDF8081088420AD1BDF865
:1046F0000410884206D12198BDF80C1000EB44004C
:10470000018064E0DDE902010AF0FF020EF0C0F969
:104710000290FAB2039901980EF0BAF90190DDE91E
:1047200001017F220EF0B4F900902198BDF800102D
:1047300000EB440001804AE092F800B092F801E0FA
:104740000BEB0E2BDDF884E01FFA8BFB2EF814B078
:10475000B9F1050F08D0B9F1060F07D0B9F1140F60
:104760000CD0FF2299B114E09278FBE7BDF810203D
:10477000934501D10022F5E7FF22F3E70F9A00FBF2
:10478000082B0E9A01EB42021BF80220EAE7002BED
:1047900005DBDDF834B0594507D1002B05DDC7F145
:1047A000FF005043000A285511E010B9BCF1000F7A
:1047B00005DB0C99884208D1BCF1000F05DDCAF178
:1047C000FF005043000A285501E000202855641CD2
:1047D00024B220988442FFF6ACAE13B0BDE8F08F4F
:1047E0002DE9F04FDDE909C8DDE90CABDDF82C90CF
:1047F0000F9F002428E009FB04F50CEB25260AFB9B
:1048000004F508EB252536122D12002E05DB8E420D
:1048100003DA002D01DB954202DB00253D5511E056
:104820005D4305EB450506EB4606354405442E7809
:1048300095F801E006EB0E26DDF838E02EF814605E
:10484000AD783D55641C24B25C45D4DBBDE8F08FE7
:1048500010B592B00446A18F002915D001A80BF025
:104860004DFC01940B480290A08F0C900020012178
:1048700009900A900B91084808900848049001A8F4
:104880000BF0B6FC12B010BD12B0BDE810401DF028
:1048900037BE00007D250208C50101087F250208FA
:1048A00070B504460D46204600F030F800B1FEE732
:1048B000284600F013F96168001D08446060204636
:1048C00000F030F8204670BD10B50C4600F006F937
:1048D0001034A04201D3012010BD002010BD0838C3
:1048E00070477CB505460C46204600F0F7F86A464E
:1048F00001A91DF009FBDDE90032214628460AF036
:1049000067FC7CBD007900F00100704710B500F035
:10491000E5F808B1002010BD012010BD007900F0BD
:104920000200704710B50446204600F07AF8046093
:1049300010BD7CB506460D46002001900090002475
:10494000002D0DD06A4601A928461DF0F4FA019801
:104950000A2805DA6A4601A930461EF0F8FF044627
:104960005CB1204600F0BAF8A84200D2FEE7DDE9CB
:104970000032214630461EF0CDFC20467CBD10B5ED
:1049800004462046FFF7CEFF00F093F82046BDE82E
:10499000104000F089B810B50446204600F041F8F8
:1049A00000F08CF82046BDE8104000F092B870B5D9
:1049B00006460D46284600F034F8044644B1204629
:1049C000FFF7A0FF70B12846FFF7A0FF08B1FEE790
:1049D000FEE72146304600F056F821462846FFF70C
:1049E0005FFF0546284670BD70B506460D46284651
:1049F000FFF794FF88B1284600F03CF8044674B1F4
:104A00002046FFF77FFF58B12146304600F03BF8C3
:104A100029462046FFF744FF0546284670BDFEE7BD
:104A2000FEE770B50546284600F058F8041F2846F2
:104A300000F091F821461DF0A9FC04462846FFF736
:104A400065FF00B1FEE7204670BD10B503460C4679
:104A50000020002C0DD05AB12146184600F07DF8F8
:104A60002046FFF798FF2046BDE8104000F073B8DD
:104A7000FEE710BD10B504462046FFF74FFF08B112
:104A8000206810BDFEE77CB505460C46204600F0C8
:104A900025F86A4601A91DF037FADDE90032214602
:104AA00028461EF037FC7CBD416841F001014160A1
:104AB0007047416841F0020141607047416821F050
:104AC000020141607047027902F003020A4342602A
:104AD0007047416821F0010141607047406820F053
:104AE000030070472DE9F04106460C46304600F0C1
:104AF00032F8211F1DF04AFC80463046FFF7EEFFDA
:104B0000051B2D1F404600F026F80746404600F0E2
:104B100022F80421FFF789FA874200D0FEE73046E9
:104B2000FFF7DCFF2919091D884200D0FEE729465E
:104B30004046FFF7C8FF4046FFF7D0FF0C2800D2E1
:104B4000FEE721463046FFF7BEFF4046FFF717FF5E
:104B50004046BDE8F0810830704770B506460D4606
:104B600014462846FFF7CEFEB0B121462846FFF78F
:104B7000ABFE002811D021462846FFF7B3FF0446BC
:104B80002846FFF7CFFE2046FFF793FF2146304629
:104B9000BDE87040FFF7A5BEFEE770BD70B50546E5
:104BA0000C4616462046FFF7ADFE00B1FEE7314643
:104BB0002046FFF789FE002811D031462046FFF736
:104BC00091FF04462046FFF779FF21462846FFF76C
:104BD000EEFE01462846BDE87040FFF782BE70BD7C
:104BE00038B5044613F0E8F80546284613F023F9D3
:104BF00030B1218FE186204618F0F8F8012038BD49
:104C0000204611F085FAF8B1204611F037F9218FCE
:104C1000E08E81420CD02087E08E00906A461C21F5
:104C2000204611F0CDFC0128E9D1204618F0DEF82D
:104C3000284613F00EF90428E0D1204616F012FCA5
:104C4000002112F018FAD9E7204611F0B7FAD5E79B
:104C500070B511F0B1FC0546284616F049FC044633
:104C600028460CF0DDFE01462046BDE870400022DB
:104C70001BF0F0BBC0F300207047C0F3C0107047BA
:104C8000C0F300207047C0F340207047C0F300100D
:104C90007047C0F380107047C0F380207047C0F3A6
:104CA000C0207047C0F34010704700002DE9F04F5E
:104CB00087B005460C460021284616F0F4FA60B38A
:104CC0002146284600F096FA2146284600F072F860
:104CD0000021284617F093FA06900021284617F085
:104CE00030FB05900021284617F04AF901281BD017
:104CF00000270021284617F076FC80460021284630
:104D000017F0B2F9064642F2D179C8450ED1688C47
:104D100000050BD44FF001080AE007B02046BDE8BB
:104D2000F04F1C2114F03ABE0127E2E74FF00008D3
:104D3000284616F040FB834628460021DFF870A085
:104D4000BAF8042017F051FB0490C2B2A36821699D
:104D50002068CDE90013CDE9020741465846069B7D
:104D60000AF080F820834E4504D1688C400501D4B8
:104D7000012600E00026284616F000FB07462846DC
:104D80000021BAF8082017F030FBC2B2E36861696D
:104D900060680025CDE90013CDE9020531463846AB
:104DA000059B0AF05FF8608307B0BDE8F08F000054
:104DB000280100202DE9F84F82460C46504609F0A4
:104DC0005BFA0746504616F0F6FA8146384601F07F
:104DD000C3F82061400014F07DFC20602069400091
:104DE00014F078FCA060002541F69A7836E0494E30
:104DF00037F91500404530D14FF0000B1EE0594601
:104E0000504616F050FA00904349009817F008FDFC
:104E100090B9009809F042FA01280DD1009809F0E4
:104E200033FAA84208D1009817F0AAFCB04203DB7D
:104E3000009817F0A5FC06460BF1010B504616F042
:104E400048FA5845DBD8002E03DBA06820F815602F
:104E500003E0A168002021F815006D1C2069A8421C
:104E6000C5D80025AB46002041F69B7618E037F9FF
:104E70001010B14204DB0D44A5F5F8559B3D0EE042
:104E8000414506D1A16831F8101059440FFA81FB51
:104E900005E0A26822F8101059440FFA81FB401C6B
:104EA00021698142E3D80021504617F0A8F9216911
:104EB000C1F1010100FB0190A0EB0B0001B2002940
:104EC00000DA00214FF0FF3C0022002011E037F90A
:104ED0001030B3420CDBA3F5F8539B3B1AB201FB35
:104EE00002F3B3FBF5F3D4F808C02CF81030844675
:104EF000401C23698342EAD8BCF1000F07DBA81AE3
:104F00004843B0FBF5F0081AA16821F81C00BDE881
:104F1000F88F000001E0FFFF010006002DE9F05FBF
:104F2000074600221146384618F052FF0021384645
:104F300017F056F804460021384617F008FA2044C6
:104F40000FFA80F80021384617F005F920440FFACF
:104F500080FA384616F0B4FF404450440FFA80F906
:104F60002C4C384616F0B5F98346002517E0B86892
:104F7000006850F825602849304617F051FC68B9A0
:104F8000304617F095FFC0B1B6F91A00B7F9161000
:104F9000401A411CA14200DB441C24B26D1C5D453B
:104FA000E5D341F6FF70C44232D004EB0A0000B2F0
:104FB000484500DC4846BDE8F09F0021304616F029
:104FC000A3FFD0B1012818D0022816D0032814D08E
:104FD0000021304617F019FB0028DFD106F114003C
:104FE00006460BF0C0FE4044A04204DB30460BF006
:104FF000BAFE00EB080424B2D0E7B6F91A00B7F9FC
:105000001610401A411CA14200DB441C24B2C5E723
:105010004846D0E701E0FFFF010004002DE9F05F02
:10502000054600221146284618F0BCFE00212846FD
:1050300016F0D6FF04460021284617F034F9204424
:105040000FFA80F80021284617F0E5F820440FFAFF
:1050500080F9284616F042FF484440440FFA80FB8E
:105060005A4C284616F035F982460021284616F09B
:1050700069FF012801D0002666E0002617E0A86835
:10508000006850F826705249384617F0C9FB68B9D5
:10509000384617F00DFFA0B1B5F91800B7F9141094
:1050A000401A411CA14200DB441C24B2761C564528
:1050B000E5D341F6FF70C4424FD004EB090004B2BF
:1050C0004BE00021384616F01FFFD0B1032818D05E
:1050D000062816D0082814D00021384617F08FFA79
:1050E0000028E3D107F1140007460BF081FE40448D
:1050F000A04204DB38460BF07BFE00EB080424B230
:10510000D4E7B5F91800B7F91410401A411CA142B0
:1051100000DB441C24B2C9E7A868006850F8267078
:105120002B49384617F07CFB68B9384617F0C0FEAB
:10513000D0B1B7F91800B5F91410401A411CA142BA
:1051400000DB441C24B2761C5645E5D341F6FF70C3
:10515000C44202D004EB080004B241F6FF70C4421E
:105160002DD15846BDE8F09F0021384616F0CCFE00
:10517000D0B1012818D0042816D0072814D0002157
:10518000384617F042FA0028DDD107F1140007462F
:105190000BF02EFE4844A04204DB38460BF028FEFC
:1051A00000EB090424B2CEE7B7F91800B5F91410E2
:1051B000401A411CA14200DB441C24B2C3E75C45F9
:1051C00001DD2046CEE75846CCE7000001E0FFFFB6
:1051D0000100040010B50446206814F0C9FA6068A4
:1051E00014F0C6FAA06814F0C3FAE068BDE81040F5
:1051F00014F0BEBA2DE9F05F81460C46484609F02E
:10520000A9FC0746384600F0A7FE6061400014F094
:1052100061FA60606069400014F05CFAE0600025AB
:1052200041F69A7836E04B4E37F91500404530D1BB
:105230004FF0000A1EE05146484616F034F8834607
:105240004549584617F0ECFA90B9584609F012FD56
:1052500001280DD1584609F003FDA84208D158464F
:1052600016F007F9B04203DB584616F002F906467D
:105270000AF1010A484616F02CF85045DBD8002EFA
:1052800003DBE06820F8156003E0E168002021F806
:1052900015006D1C6069A842C5D80025AA460020EB
:1052A00041F69B7618E037F91010B14204DB0D444B
:1052B000A5F5F8559B3D0EE0414506D1E16831F872
:1052C000101051440FFA81FA05E0E26822F810103C
:1052D00051440FFA81FA401C61698142E3D80021F0
:1052E000484617F02EF88046484616F047F86169A0
:1052F000C1F1010108FB0100A0EB0A0001B2002985
:1053000000DA00214FF0FF3C0022002011E037F9C5
:105310001030B3420CDBA3F5F8539B3B1AB201FBF0
:1053200002F3B3FBF5F3D4F80CC02CF8103084462C
:10533000401C63698342EAD8BCF1000F07DBA81A5E
:105340004843B0FBF5F0081AE16821F81C00BDE8FD
:10535000F09F000001E0FFFF0100060038B50446A1
:10536000204600216E2217F040F8009000B208B1EC
:10537000022038BD204600216D2217F036F800903B
:1053800000B2B0F5807F01D0022038BD2046002158
:10539000612217F02AF80090C0B2FF2801D0012046
:1053A00038BD20460021682217F01FF80090C0B2D7
:1053B00008B1012038BD002038BD1CB50B88048918
:1053C0002344ADF800304B8844892344ADF80230C3
:1053D0008B8804892344ADF80430C9884389194473
:1053E000ADF806104369694698471CBDF8B50E46EE
:1053F00004462046A16B002909D01BF06BFB104925
:1054000009688847A16B884201D30020F8BD606B12
:1054100028B1007818B1002000900A4D08E0012062
:10542000F8BD2A6869469047B04201D10120F8BD15
:10543000606B0099415C0029F3D10020F8BD0000A9
:10544000F8000020E40000202DE9FF4F89B00D4650
:105450001A9CE878C007002801D0F44800E0F4481E
:10546000079001D0F34F00E0F34F01D1F14800E085
:10547000F14806904FF0000948466188A288A1EBE8
:10548000020109B20246D4F8108013E002EB820652
:105490004FF0100CE3680CEB860C13F80CC05FEABD
:1054A000CC7C0CD04FF0080C0CEB86069B5BC91A29
:1054B00009B2521C9045E9D84FF0000C4CE04FF077
:1054C0000C0C0CEB86069B5B184400B2F1E70CEB6E
:1054D0008C061022E36802EB860208929A5CD207DF
:1054E00038D1C8B191FBF0F80C2202EB8602964647
:1054F0009A5A02FB08F212B24FF0060A4FF0040863
:105500000AEB860A08EB860833F90AA033F908800B
:10551000924502DD934601E0FEE7D346D84504DC20
:10552000924501DD904600E0D046904504D0089AAF
:105530004FF0010943F80290E368082202EB86026B
:1055400023F80280E36833F80E20801A00B2A1EB42
:10555000080109B20CF1010C22696245B7D8B9F112
:10556000000F87D10021099816F004FD012821D0F1
:105570004FF0000A00200590049004A805A9CDE989
:1055800000102089B4F9022003B2287818991CF081
:10559000FFFEE87810EA0A0F06D0099815F00BFF15
:1055A000BDF81410084405900B99099815F07BFE7E
:1055B000064631E14FF0010ADCE7A049304617F01A
:1055C0002FF940B1E8780BAAC0F38001099809F0DF
:1055D00055F9064620E10021304616F02FFDE8B3CC
:1055E0004FF000080020216910E0E26800EB800322
:1055F00052F82320B24208D100EB8002E168082073
:1056000000EB820031F9008002E0401C8142ECD8BE
:10561000E878C00706D0708C40F4006020F4806009
:10562000708405E0708C40F4806020F40060708429
:1056300006F114008146B84740452AD0304617F09D
:10564000D5FBB08AADF80400F08AADF80600308BC7
:10565000ADF80800708BADF80A0000E013E0079A7F
:1056600041464846904701AA2921304610F0A8FF3C
:10567000304615F03DFF3246222110F0A1FF3046A2
:1056800017F0B4FB05E0708C20F4006020F480601B
:1056900070844FF0000B6878012811D0022817D1D0
:1056A000069906F114008847B4F90010491C21F04E
:1056B0000101081A00EBD07040100FFA80FB07E0E0
:1056C000069906F1140088472188081A0FFA80FB12
:1056D000E87810EA0A0F06D006F11400B847BDF8C2
:1056E0001410081A0590304600216B2216F07DFE3A
:1056F00002900FFA80F8304600216C2216F075FEF9
:1057000002900FFA80F9304617F03AF803903046CD
:1057100015F0AFFE0146C8F34130012810D128F43E
:10572000C040B0F5FA6F0BDCB0F57A7F01DDC0F553
:105730007A70039A5043642290FBF2F00FFA80F8DB
:10574000C9F3413001280FD129F4C040B0F5FA6FF8
:105750000ADCB0F57A7F01DDC0F57A704843642138
:1057600090FBF1F00FFA80F9B18A1698401A404484
:1057700002B2F18A1798401A484401B2E878C0078B
:10578000002802D0BDF9140000E0584610440FFA7A
:1057900080F801D1BDF914B00BEB01000FFA80F9CC
:1057A00058EA090017D0304617F020FBB08A404471
:1057B000B082308B40443083F08A4844F082708B52
:1057C00048447083304617F011FB00234A46414697
:1057D000304617F0C0FBE87810EA0A0F0CD106F14A
:1057E0001400B84719990844BDF810100844BDF8D2
:1057F00014100844059007E0BDF8101019980844EB
:10580000BDF81410081A0590E8780BAAC0F38001BF
:10581000099809F033F80646002E04D0DDE90B1094
:1058200081427FF4CAAE0DB0BDE8F08FD90E0108F9
:10583000CF0E0108750E0108C70D01080100060012
:105840002DE9F04F8BB005468A46BAF1000F43D0E0
:10585000A5F818A0286808B113F09CFF0AEB4A00CD
:10586000062101EB400013F005FF286040B368609B
:10587000022101EB4A010144E960042101EB8A01A4
:105880000144A9604FF00008BAF1010F19D00AF1E4
:1058900001000446C00013F01DFF064606EB840716
:1058A000C1464FEA8A0002B209A90AA800F030F9FD
:1058B0000024BDF928008010059000200190B2E07E
:1058C000FEE7B4210170E868A0F80080E9680120D3
:1058D0004880A868A0F800800BB0BDE8F08F4FF0BA
:1058E00000080DF1140B09A90AA800F018F90AA87C
:1058F00000F004F970B1BDF9280081104BF82810B0
:1059000000F0030101A840F8281008F10108B8F1DF
:10591000040FE8DBB8F1040F7ED10899059888429E
:1059200013D1059826F8140027F81490DDE9010139
:105930000844DDE9031211440844696808556968A0
:1059400000010855641C24B26BE0DDE905018842C2
:1059500020D0059826F8140027F81490696801985B
:105960000855696800010855641C20B20599491E54
:1059700026F8101027F81090DDE902120A44049965
:10598000091D11446A6811546A6809011154401CC8
:1059900004B246E007990598884220D0059826F879
:1059A000140027F81490DDE90101084469680855DE
:1059B000696800010855641C20B20599491E26F843
:1059C000101027F81090DDE9031211446A680831BD
:1059D00011546A6809011154401C04B221E0059871
:1059E00026F8140027F81490DDE901010844039912
:1059F000084469680855696800010855641C20B2AC
:105A00000599491E26F8101027F8109004996A6825
:105A10000C311154090100E00BE06A681154401C7C
:105A200004B209F101090AA800F068F800287FF41F
:105A300056AF40F2D3200AFB00FA4FEAAA20611EBB
:105A400036F91120824203D137F9111081421AD060
:105A5000AAEB8021B1F5007F03DC4943490009141A
:105A600006E0C1F58061494349000914C1F10F0105
:105A700026F8140027F814006868015568680901C1
:105A80000155641C24B2A01E0DE037F8101026F852
:105A9000141036F8101027F8141069680A5C0A55BB
:105AA000401E641C24B20028EFDA00210020EB68BD
:105AB00000221A801CE0EA6822F81100AB6836F870
:105AC000102023F811200BE0D5F808C036F910306B
:105AD0003CF811209A4200DB1A462CF81120401C99
